:100000000C942A000C9447000C9447000C94470071
:100010000C9447000C9447000C9447000C94470044
:100020000C9447000C9447000C9447000C94470034
:100030000C9447000C94BA000C947E000C9455006C
:100040000C9447000C9447000C9447000C94470014
:100050000C94470011241FBECFE5D8E0DEBFCDBF12
:1000600011E0A0E6B0E0EEE4FCE002C005900D92E5
:10007000AA37B107D9F711E0AAE7B1E001C01D9294
:10008000A03CB107E1F70E9407010C9425060C94EF
:10009000000090BD89B988E18AB986E880BD8A9A56
:1000A000929A8AB1886D8AB908951F920F920FB6FD
:1000B0000F92112492980F900FBE0F901F901895D9
:1000C000282F90917A019F5F9F7080917B019817F4
:1000D000E1F3E92FF0E0E458FE4F208390937A019A
:1000E000559A0895CF93DF93EC0102C00E946000FF
:1000F00089918823D9F7DF91CF9108951F920F92AC
:100100000FB60F9211248F939F93EF93FF939091CB
:100110007A0180917B01981771F080917B018F5F4C
:100120008F7080937B01E0917B01F0E0E458FE4FFB
:1001300080818CB901C05598FF91EF919F918F916B
:100140000F900FBE0F901F90189590918C01809189
:100150008D01981711F480E0089580918D018F5FD3
:100160008F7180938D01E0918D01F0E0E257FE4F99
:10017000808108951F920F920FB60F9211248F93D2
:100180009F93EF93FF939CB1E0918C01EF5FEF7130
:1001900080918D01E81731F0E0938C01F0E0E25797
:1001A000FE4F9083FF91EF919F918F910F900FBE23
:1001B0000F901F9018950F931F93DF93CF93CDB798
:1001C000DEB761970FB6F894DEBF0FBECDBFAB01AF
:1001D0008E010F5F1F4FB8010E94F405C8010E94F5
:1001E000720061960FB6F894DEBF0FBECDBFCF91FF
:1001F000DF911F910F91089597B1987F982B97B930
:10020000369A3699FECF24B135B1C9010895CF92FF
:10021000DF92EF92FF920F931F93CF93DF9380E0D3
:1002200090E0A0E0B0E08093B2019093B301A0937E
:10023000B401B093B5018093B6019093B701A09338
:10024000B801B093B90183E390E00E94490078942B
:1002500087B1816C87B986B1876886B980EA81BF2A
:10026000C8E1DCEF0CE91FEF96EFC92E9FEFD92E06
:1002700088ECE82EF12C81E090E00E94FC00AA2797
:1002800097FDA095BA2FBC01CD010E9448032AE03A
:1002900037ED43E250E40E944E0220E030E040E8B7
:1002A0005AE30E944E0220E030E040EC50E40E940D
:1002B0004E026093B6017093B7018093B80190939A
:1002C000B9016091B6017091B7018091B801909128
:1002D000B90120E030E04AE754E40E944E02609306
:1002E000B2017093B3018093B4019093B501609112
:1002F000B2017091B3018091B4019091B5010E9457
:10030000A603882777FD8095982F0E94480326E64C
:1003100036E646E65FE30E944E020E94A603709313
:10032000BD016093BC018091BC019091BD0168EE5C
:1003300073E00E9496057093AF016093AE01209127
:10034000BC013091BD018091AE019091AF01AC0133
:100350004C9FC0014D9F900D5C9F900D1124820F0A
:10036000931F64E670E00E9496057093BF0160934E
:10037000BE014091BC015091BD018091BE019091A0
:10038000BF012091AE013091AF01BC01609FC0015F
:10039000619F900D709F900D1124F901EC9F9001C9
:1003A000ED9F300DFC9F300D1124820F931F840FA1
:1003B000951F6AE070E00E9496057093BB01609300
:1003C000BA016091BC017091BD018091BE01909114
:1003D000BF012091AE013091AF014091BA0150911F
:1003E000BB01FC01E09FC001E19F900DF09F900DCB
:1003F0001124F901EC9F9001ED9F300DFC9F300D11
:100400001124820F931F860F971F4C9D90014D9DC5
:10041000300D5C9D300D1124820F931F9093B1011C
:100420008093B00180E690E00E9472008091AE015E
:100430009091AF016AE070E00E94DB008EE690E0F0
:100440000E9472008091BE019091BF016AE070E04D
:100450000E94DB008091BA019091BB016AE070E0DC
:100460000E94DB0080E790E00E9472001092AF01D2
:100470001092AE011092BF011092BE011092BB010A
:100480001092BA011092B1011092B00180E29EE484
:10049000F7013197F1F70197D9F7EDCEA0E2B0E07F
:1004A000E4E5F2E00C94BD0569837A838B839C8339
:1004B0002D833E834F835887CE010196BE01675F2F
:1004C0007F4F0E941E05CE010596BE016F5E7F4FD5
:1004D0000E941E059985923088F089898230C8F083
:1004E000943019F4823051F404C0843029F49230ED
:1004F00081F482E790E0C6C0923049F420E09A850A
:100500008A89981321E02A87CE010996BBC08230E0
:1005100049F420E09A858A89981321E02A8BCE013C
:100520004196B0C02D843E844F8458886D887E8863
:100530008F88988CEE24FF248701AA24BB246501B0
:1005400040E050E060E070E0E0E0F0E0C101817088
:100550009070892BE9F0E60CF71C081D191D9A0113
:10056000AB012A0D3B1D4C1D5D1D80E090E0A0E01D
:10057000B0E0E614F7040805190520F481E090E0E6
:10058000A0E0B0E0BA01A901480F591F6A1F7B1F04
:10059000AA0CBB1CCC1CDD1C97FE08C081E090E0BF
:1005A000A0E0B0E0A82AB92ACA2ADB2A3196E032B4
:1005B000F10549F0660C771C881C991C56944794E9
:1005C00037942794C3CFFA85EA892B893C898B8598
:1005D0009C85280F391F2E5F3F4F17C0CA018170BD
:1005E0009070892B61F016950795F794E79480E059
:1005F00090E0A0E0B0E8E82AF92A0A2B1B2B7695B8
:100600006795579547952F5F3F4F77FDE7CF0CC014
:10061000440F551F661F771F17FD4160EE0CFF1C2E
:10062000001F111F21503040403090E0590790E0EA
:10063000690790E4790760F32B8F3C8FDB01CA01D7
:100640008F779070A070B07080349105A105B105CE
:1006500061F447FD0AC0E114F1040105110529F018
:10066000405C5F4F6F4F7F4F40781A8EFE1711F03E
:1006700081E08A8F4D8F5E8F6F8F78A383E0898FA3
:10068000CE0149960E944904A096E2E10C94D90556
:10069000A8E0B0E0EEE4F3E00C94C6059B01AC01E9
:1006A00083E08983DA01C9018827B7FD83959927FB
:1006B000AA27BB27B82E211531054105510519F48C
:1006C00082E089833AC08823A9F0203080E038078F
:1006D00080E0480780E8580729F460E070E080E097
:1006E0009FEC30C0EE24FF248701E21AF30A040BCA
:1006F000150B02C079018A018EE1C82ED12CDC8253
:10070000CB82ED82FE820F831887C801B7010E9459
:10071000FA0301971816190684F4082E04C0EE0C8B
:10072000FF1C001F111F0A94D2F7ED82FE820F8377
:100730001887C81AD90ADC82CB82BA82CE01019608
:100740000E9449042896E9E00C94E205ACE0B0E090
:10075000ECEAF3E00C94CD0569837A838B839C8368
:10076000CE010196BE016B5F7F4F0E941E058D81F9
:10077000823061F1823050F1843021F48E818823FF
:1007800051F12EC02F81388537FD20C06E812F3169
:1007900031051CF06623F9F023C08EE190E0821B46
:1007A000930B29853A854B855C8504C05695479502
:1007B000379527958A95D2F76623B1F050954095E5
:1007C000309521953F4F4F4F5F4F0EC020E030E0F6
:1007D00040E050E009C02FEF3FEF4FEF5FE704C06C
:1007E00020E030E040E050E8B901CA012C96E2E098
:1007F0000C94E905EF92FF920F931F937B018C01FC
:1008000080E0E81680E0F80681E0080780E018073D
:1008100088F48FEFE816F1040105110531F028F096
:1008200088E090E0A0E0B0E017C080E090E0A0E0B9
:10083000B0E012C080E0E81680E0F80680E008072B
:1008400081E0180728F088E190E0A0E0B0E004C063
:1008500080E190E0A0E0B0E020E230E040E050E055
:10086000281B390B4A0B5B0B04C016950795F794B0
:10087000E7948A95D2F7F701E658FF4F8081281B4D
:10088000310941095109C9011F910F91FF90EF9062
:100890000895DF92EF92FF920F931F93FC01E48083
:1008A000F58006811781D1808081823048F480E014
:1008B00090E0A0E1B0E0E82AF92A0A2B1B2BA5C0A2
:1008C000843009F49FC0823021F4EE24FF24870194
:1008D00005C0E114F1040105110519F4E0E0F0E0B0
:1008E00096C0628173819FEF623879070CF05BC01C
:1008F00022E83FEF261B370B2A3131052CF020E090
:1009000030E040E050E02AC0B801A701022E04C048
:1009100076956795579547950A94D2F781E090E0D0
:10092000A0E0B0E004C0880F991FAA1FBB1F2A9542
:10093000D2F70197A109B1098E219F21A023B123EC
:100940000097A105B10521F081E090E0A0E0B0E0C2
:100950009A01AB01282B392B4A2B5B2BDA01C901F9
:100960008F779070A070B07080349105A105B105AB
:1009700039F427FF09C0205C3F4F4F4F5F4F04C041
:10098000215C3F4F4F4F5F4FE0E0F0E02030A0E0B0
:100990003A07A0E04A07A0E45A0710F0E1E0F0E0CF
:1009A00079018A0127C06038710564F5FB01E158BF
:1009B000FF4FD801C7018F779070A070B07080345E
:1009C0009105A105B10539F4E7FE0DC080E490E082
:1009D000A0E0B0E004C08FE390E0A0E0B0E0E80E5B
:1009E000F91E0A1F1B1F17FF05C016950795F794E0
:1009F000E794319687E016950795F794E7948A95E2
:100A0000D1F705C0EE24FF248701EFEFF0E06E2F51
:100A1000679566276795902F9F77D794DD24D794A5
:100A20008E2F8695492F462B582F5D29B701CA0175
:100A30001F910F91FF90EF90DF900895FC01DB0173
:100A4000408151812281622F6F7770E0221F22271F
:100A5000221F9381892F880F822B282F30E0991F26
:100A60009927991F11969C93119721153105A9F586
:100A7000411551056105710511F482E037C082E826
:100A80009FEF13969C938E9312979A01AB0167E0A8
:100A9000220F331F441F551F6A95D1F783E08C93B3
:100AA0000DC0220F331F441F551F12968D919C912C
:100AB0001397019713969C938E931297203080E0A2
:100AC000380780E0480780E4580758F314962D93C0
:100AD0003D934D935C93179708952F3F310579F41B
:100AE000411551056105710519F484E08C93089551
:100AF00064FF03C081E08C9312C01C9210C02F577A
:100B0000304013963C932E93129783E08C9387E0AA
:100B1000440F551F661F771F8A95D1F7706414968E
:100B20004D935D936D937C931797089597FB092ED2
:100B300007260AD077FD04D00CD006D000201AF486
:100B4000709561957F4F0895F6F7909581959F4F29
:100B50000895AA1BBB1B51E107C0AA1FBB1FA61704
:100B6000B70710F0A61BB70B881F991F5A95A9F756
:100B700080959095BC01CD0108952F923F924F92A0
:100B80005F926F927F928F929F92AF92BF92CF921D
:100B9000DF92EF92FF920F931F93CF93DF93CDB726
:100BA000DEB7CA1BDB0B0FB6F894DEBF0FBECDBF9E
:100BB00009942A88398848885F846E847D848C846F
:100BC0009B84AA84B984C884DF80EE80FD800C8178
:100BD0001B81AA81B981CE0FD11D0FB6F894DEBF5B
:100BE0000FBECDBFED010895FB019F01E894423097
:100BF000C4F04532B4F44A3029F497FB1EF49095C2
:100C000081959F4F642F77270E94A905805D8A33C5
:100C10000CF0895D8193CB010097A1F716F45DE29A
:100C200051931082C9010C941506DC01FC01672F59
:100C300071917723E1F7329704C07C916D937083B3
:0E0C40006291AE17BF07C8F30895F894FFCF76
:100C4E004E617069656369655B565D3A20002E00E2
:100C5E00200000000000000000000001020203035B
:100C6E000303040404040404040405050505050532
:100C7E000505050505050505050506060606060610
:100C8E0006060606060606060606060606060606F6
:100C9E0006060606060606060606070707070707E0
:100CAE0007070707070707070707070707070707C6
:100CBE0007070707070707070707070707070707B6
:100CCE0007070707070707070707070707070707A6
:100CDE000707070707070707070708080808080890
:100CEE000808080808080808080808080808080876
:100CFE000808080808080808080808080808080866
:100D0E000808080808080808080808080808080855
:100D1E000808080808080808080808080808080845
:100D2E000808080808080808080808080808080835
:100D3E000808080808080808080808080808080825
:100D4E000808080808080808080808080808080815
:0A0D5E00080808080808080808083B
:00000001FF
